:020000040000FA
:10000000E8020020C1000000F7060000F106000031
:1000100000000000000000000000000000000000E0
:1000200000000000000000000000000011080000B7
:1000300000000000000000000D0800001308000090
:1000400000000000D300000000000000F5060000E2
:1000500000000000E9060000EB060000ED060000CD
:10006000EF0600000000000000000000000000009B
:1000700095060000BD08000000000000470B0000CE
:10008000450B0000250B00000000000000000000F0
:10009000F90600000000000000000000F306000068
:1000A000000000000F08000000000000490B0000E5
:1000B000AD0B000000000000000000000000000088
:1000C0000448804704480047FEE7FEE7FEE7FEE7F6
:1000D000FEE7FEE715080000DD0000000348854646
:1000E00000F0FCF900480047550C0000E802002031
:1000F000F0B51FB40646002082B0054640240191A9
:1001000000901BE0019922460F46304600F02DFA80
:10011000049A059B801A994110D31046194622462D
:1001200000F013FA361A8F41019722460120002170
:10013000009F00F00AFA38184D4100902046641ED6
:100140000028DFDC019B00982946324607B0F0BD4D
:10015000F0B507460846584087B0C00F04904800E5
:100160000E46590040084908BC1A884105D2384655
:1001700031461E4617460B460246580040081043BB
:100180004CD0300D039040055900400D490D0590AD
:10019000401A0290402872DA18030121000B090569
:1001A0000843019004980092002805D0019952421A
:1001B0000020884100920190029840210A1A01997A
:1001C000009800F0C2F905460C466B4607CB00F0DC
:1001D000DDF9C0197141039A0E0D0023D71756405F
:1001E0001A467A40164344D0049A002A2DD0029A27
:1001F000012A039A15DC1205C01A91410126360521
:10020000001C7141D20F059ED20700930192029605
:100210002A46234600F0DAF907B0F0BD38463146E9
:10022000FAE71605224A0F46B218C01AB741012153
:100230000905001C4F4100187F41114618187941EB
:10024000E20F10436D19644113E0E2076D08154396
:100250006408C2071443039A01261205C01A91418B
:100260003605001C7141CE07400830434908C018CC
:1002700051412A46234600F09CF9CDE7FFE7049858
:1002800001224000C117121A00238B410498314605
:10029000C417381AA141EEE730B40124E4076340E3
:1002A00030BC55E730B40124E407614030BC4FE76F
:1002B0000000E0FFF0B51FB488B00B990998002446
:1002C00048400999C00F490049080991C0070B9996
:1002D0000090490049080B9109990898A6460843DF
:1002E0001CD00B990A98084318D0099801244000A3
:1002F000420D4800410D099824050003000B2043DE
:1003000009900B980003000B20430B9050181C49D8
:100310004018002201901446104605E000200146D6
:100320000DB0F0BD032801DA034600E003239C462C
:10033000C11A0AAE0AE05F0008ADED5B4F00F75B43
:100340007D430027AA187C41491C5B1E6145F2DDF4
:10035000410004AB5A522104120C0A43240C401CE5
:100360000828DFDB01980290009970460191009007
:10037000059B049A0799069800F028F9D0E7000039
:100380000DFCFFFFF0B50C465C4085B0E40FE407C0
:1003900003944C000026640859009446490802461C
:1003A0000296224321D062460A431ED06200570DB6
:1003B0004A000E032303550D012402462C4924054F
:1003C000781B1B0B360B40182343264361460090D5
:1003D0001C46501AB44103D30098401C009002E020
:1003E000921800985B41002803DA0020014605B00E
:1003F000F0BD0020012109050746864611E064464C
:100400001D46141BB54106D36546521BB3417446C5
:1004100007430C43A646CD074008490828439218D5
:100420005B4105460D43EAD11046184313D06046A0
:10043000194650407140084306D06046101AB34137
:1004400006D20122002306E000220123DB0702E09E
:100450000122D2435310009874460105381C6141B3
:10046000029C039D0019694100F0A3F8BFE700005A
:10047000FD0300004A0009030123090B1B05194372
:100480000A4B10B5520D9A4202DA0020014610BD07
:10049000064B34339A4203DC9A1A00F066F810BD1A
:1004A000034BD21800F051F810BD0000FF0300000C
:1004B000CDFBFFFF10B5002904DB0124E407404217
:1004C0008C412146002B04DB1C460123DB075242F2
:1004D000A341994200D1904210BD00001CB50948CB
:1004E00000900948019005460126009C05E0E3685C
:1004F00007CC33430C3C98471034AC42F7D3FFF79A
:10050000F1FD000094190000A419000070B5044624
:10051000002903D000202022012310E0002801D070
:100520000020C043C046C0460DE02546D5408D4260
:1005300005D30D469540641B1D4695404019154650
:10054000521E002DF1DC214670BD10B5202A04DBBF
:100550000146203A9140002010BD914020239C1A72
:100560000346E3401943904010BD10B5202A04DB38
:100570000846203AD040002110BD0B46D340D04061
:100580002024A21A91400843194610BD10B5202A14
:1005900006DBCB170846203A1041C1170B4306E093
:1005A0000B461341D0402024A21A9140084319461B
:1005B00010BD10B5002B08DA0024401C61419218D0
:1005C0005B411A4301D14008400010BDF0B51FB493
:1005D00082B005460C0003D0084600F013FD02E08F
:1005E00000F010FD20300246009021462846FFF71B
:1005F000ACFF049B059A04460F4618431143084379
:1006000014D0184610431BD0009840210A1A1846EF
:100610000599FFF7AAFF05460E46009A059904982A
:10062000FFF793FF084305D0012004E02046394638
:1006300007B0F0BD0020C11705430E432C433743DC
:1006400000990E986305401A7905E40A00220C43CC
:10065000FD0A0A3002D500200146E9E7010510191C
:1006600069410C9C0D9D00196941FFF7A2FFDFE76E
:10067000D2B201E00270401C491EFBD2704700223A
:10068000F6E710B513460A4604461946FFF7F0FF91
:10069000204610BD10B51248816849071ED5016C6F
:1006A00010490C680122D20603681340641C03D071
:1006B000002B04D0036801E0002B00D10368436CD9
:1006C0000B68016811405A1C03D0002904D001684E
:1006D00001E0002900D10068E348006810BDC04671
:1006E000002401402CF0014070477047704770476C
:1006F000FEE770477047704770470000F0B587B05D
:100700000778042F4DD24268082A4ED201210B04EB
:10071000866834461C439C424FD10C05C3681D4675
:100720002543A5424DD10C07056906952543A542F1
:100730004BD10C06456905952543A54249D1C169B0
:10074000022936D2029203910496056A02242C43B0
:10075000022C42D13E46BF00234C39192839226869
:1007600000922246A4680194008B08600299B94067
:10077000049803430698034305980343B3400B438F
:100780001AA0C05900990840184310600398054307
:10079000BD401AA0C059019908402843906007B095
:1007A000F0BD1048792100F037FA0E487A2100F0A8
:1007B00033FA0C487F2100F02FFA0A487B2100F021
:1007C0002BFA08487C2100F027FA06487D2100F02A
:1007D00023FA04487E2100F01FFA0248802100F02D
:1007E0001BFAC04661190000502C0140F8FFEEEEE4
:1007F0008FFFDDDDFFF8BBBBFF8F7777FCFFFFFFCF
:10080000CFFFFFFFFFFCFFFFFFCFFFFF70477047E9
:1008100070477047B0B52648016B0F230B408269C3
:100820008469456841680F2B01D0002B17D16B06F6
:10083000DB0F0625A543FF242402224005242402C1
:1008400054406219D21805D0002B01D040224260DA
:10085000184A8260090502D50121C90241600121BF
:10086000CA43154B1C6814401C609C680C439C6078
:100870001C6914401C61026803239A4302600268E9
:1008800002601F22130104689C4304600368036034
:1008900012060368934303600268026002689207CD
:1008A00000D0FEE7090502680A430260B0BDC046F9
:1008B0000CF0014056AB000008180040F0B583B0C2
:1008C00064480168090601D5802101600268FF279C
:1008D0002E3739462D390A4200D001605E490A8818
:1008E000406C088080B2841A01D25C4824186421CC
:1008F0002046FFF70BFE0246594E307800282BD0D9
:100900005F4D2C60584801685EA000F051F900204E
:1009100002903070394632312C68524800685E4E81
:100920003278002A23D0674A8318644D2A78BB4264
:1009300032D2322C30D38C422ED2002A03D05E48E1
:100940000178491C0170029830704748016874486A
:1009500000F02EF903B0F0BD42480460424801683F
:1009600042A000F025F90120307003B0F0BD4B4AE1
:100970008018B84253D2322C51D38C424FD23A48CD
:10098000016847A000F014F94B48029901704B48E8
:1009900001704B480170E6E7072A40D8484B1A78A7
:1009A00052081A700346323BBB4209D2FA2C07D3D5
:1009B000454B9C4204D87F21C9435218564908E050
:1009C0000346FA3BBB422CD2322C2AD38C4228D28B
:1009D0003EA101913A4F3A7064263146FFF796FDE9
:1009E000009020463146FFF791FD03461E480168FE
:1009F0000198009A00F0DCF82878401C2870C0B2FA
:100A000008280CD12C480178491C0170164801684F
:100A10003A78424800F0CCF802982870387003B059
:100A2000F0BD64273946FFF771FD01902046394635
:100A3000FFF76CFD03460C4801682DA0019A00F0F9
:100A4000B7F81D480299017029701D480170317076
:100A500003B0F0BD002C0140DC0000201027000096
:100A6000DE00002088000020D80000205425643AD1
:100A70006361705F6C6F77203A2025640D0A000077
:100A8000840000205425643A6361705F6869676878
:100A9000203A2025640D0A00E0000020F6F0FFFF58
:100AA0005425643A5B5349465D2053746172742047
:100AB0004F4B0D0A00000000810000208000002044
:100AC000DF0000203EFEFFFF260200005425643AAE
:100AD0005B5349465D204269743A3020206C6F7741
:100AE0003D25642020686967683D25640D0A000083
:100AF0005425643A5B5349465D20496E76616C69C2
:100B0000642062697421206C6F773D2564206869D8
:100B100067683D25640D0A003E1900002619000093
:100B20001219000006480168C90707D001680122B0
:100B30000A43026037480168491C01607047C0469B
:100B4000001000407047704770B5314C2068C007F6
:100B500004D115480168491C016070BD2D48056825
:100B60000E4E3068281A062806D30D480021018051
:100B70000C484121FFF783FD35600948094902E02F
:100B80002268D207E9D02246103A126803883F2B28
:100B9000F6D803885D1C0580CA54F1E78C0000205C
:100BA000D600002094000020900000207047000034
:100BB00083B0B0B581B0054605A80EC005AB009363
:100BC000124C802120462A4600F004FA012817DB47
:100BD00081B20F4800290AD0002203685B05FCD4CB
:100BE000A35C0546103D2B60521C8A42F5D101687A
:100BF000C905FCD5074801680268521A022AFBD3CE
:100C000001B0B0BC01BC03B00047C04600000020EA
:100C100010440040D80000200A46014601A0FFF71A
:100C2000C7FFFEE757726F6E6720706172616D6576
:100C3000746572732076616C75653A2066696C65BF
:100C4000202573206F6E206C696E6520256C750DF4
:100C50000A00000092B0C6480146083901270F601B
:100C60004764816839438160016802220892114318
:100C70000160C04900200860BF49072203920A6052
:100C8000BE490A68082307939A430A600A680A6003
:100C900064224A600A460C3AB94B13600A683A4328
:100CA0000A60B84D6A68B84B1A406A607A04B74B5C
:100CB0001A6010390A683A430A60B54EB2682021BA
:100CC0000A43B26003E0001D4908182807D0CA078C
:100CD000F9D03A468240336813433360F3E7B16892
:100CE00040200143B160002103E0091D40081C2998
:100CF00007D0C207F9D03A468A40336813433360BD
:100D0000F3E7FF221006E9688143F8070818E86056
:100D1000F8069E4908609F4DA8683843A8600020E7
:100D20000290C643EE61AE61286876218843019245
:100D300011460A31049108432860974C2068C00589
:100D4000C00E411C9548FFF7E1FB2168C900C90EA0
:100D5000491CFFF7DBFB0446400BE12806973846A9
:100D60000BD3E12779032046FFF7D0FB8C494143A1
:100D700009193A03914200D9401C68602868802113
:100D8000059108432860874C87482060874D294695
:100D90000839069FF803009008606F602968089A78
:100DA0001143296029683943296026607848816C9D
:100DB00004220A438264816C079A114381647C494E
:100DC0000A687C4B13407C4A9A180A600198020416
:100DD0004B6813434B607A060B6813430B60039810
:100DE00002064B6813434B604A68674B1A407F23E7
:100DF0005B0213434B604A69062313431922934352
:100E00004B611F2252014B699343A0334B61020493
:100E10008B6993433A049A188A61BA030B681343A7
:100E20000B6058480268C02313433F22934303607A
:100E30003A03564B1A600B68009803430B6008682E
:100E4000384308608868C007FCD008681043086011
:100E50005A4FB868079A1043B860029B03E01B1D05
:100E60005208102B07D0D007F9D0032098403968DA
:100E700001433960F3E7F86C08210143F964B9686C
:100E800010200143B960002103E0091D4008142926
:100E900007D0C207F9D003228A403B6813433B6066
:100EA000F3E7F86C10210143F964454A45481062A4
:100EB000106845490140116009A907910898087018
:100EC000002306930B830499D63111610E93119080
:100ED00010930C930B9301270A9738070D900798EE
:100EE000FFF70CFC0321089107980170FFF706FC3F
:100EF000069A3349086838430860304B99682020C7
:100F00000143996003E0121D4008182A0BD0C10765
:100F1000F9D0089991401346284A12680A43274994
:100F20000A601A46EFE7254AD06C20210143D164BC
:100F3000234B586B25490140254808185863114A2E
:100F4000106811490840089989030143116078032A
:100F50000E490860586B059908435863D8694021C9
:100F60000143D961104820606F602660FBE7C046EE
:100F700010100048041400480018004014100040ED
:100F8000BF1200000CE400E0FF00FFFF00E100E002
:100F900010300048044400400CF00140006CDC02BA
:100FA00000E0E3FF0034004051E5CC1A0830004077
:100FB0000024014081F4C0FF3208060010200048E0
:100FC000042C014010270000FBF9FFFF8FFF8FFF6B
:100FD000300020007CB51D4616460C0001D0611E75
:100FE00000E0002101910090054B6A4629463046F9
:100FF00000F0E8F8002C02D0009A002111707CBDAE
:10100000FD1800002021020C01D010211046020A18
:1010100001D010460839020901D01046091F820884
:1010200001D01046891E420801D0881E7047081A58
:10103000704702E008C8121F08C1002AFAD17047A1
:101040007047002001E001C1121F002AFBD1704748
:10105000F0B51FB486B00998089A030D0021024329
:1010600014D05148514A18185043051411980128BA
:1010700010981AD0281A401C00264D4F4D49009652
:1010800001910490002812DA444211E011980124E1
:1010900049A3012801D11098C1430698119A846090
:1010A0000360C26041600BB0F0BD4042E4E704461B
:1010B000210500203F4A001C51410391029012E09B
:1010C000E00707D032463B4601990098FFF7F2F857
:1010D0000191009032463B4610461946FFF7EAF868
:1010E00006460F466410002CEAD10498039B0028A2
:1010F000029A0999089806DAFFF7DCF8019B009A32
:10110000FFF7D8F805E0FFF73DF9019B009AFFF7DC
:1011100039F904460E460022284BFFF7CBF903D8D5
:101120000020C043014607E00022254B20463146FF
:10113000FFF70EF8FFF79EF9102409E0002C0ADBF8
:101140000A220023FEF7D4FF079B30321A55641E93
:1011500002460A43F2D11122641C079B121B1C1980
:10116000119B012B03D0012308430ED10AE0084351
:1011700004D0112010900020119077E71098151AD4
:101180006D1E0BE01098824202DD00236D1C03E00F
:10119000824201DA00236D1E002BEED006981199D1
:1011A0008260C16030C07EE701FCFFFF104D00008F
:1011B000000014400000F03F300000000000F04349
:1011C0000000E03FFFB597B00646002518E225284D
:1011D00077D100242746FD49049400E00443761C9F
:1011E00032780120203A90400842F7D130782A28FE
:1011F0000ED00222307801463039092916D80499D8
:101200000A235943303940181443761C0490F1E7FF
:10121000189802C804911890002904DA01204003AC
:1012200004434842049002200443761C30782E2860
:1012300014D1042004437078761C2A2809D1189808
:10124000761C80C8189009E00A214F43303FC71927
:10125000761C3078014630390929F5D930786C2868
:1012600010D006DC4C281AD068280ED06A2817D176
:1012700004E0742813D07A2812D110E00120400530
:1012800004430CE00121090501E0032109050C4399
:101290007178814203D1012000052418761C761C48
:1012A0003078119066280BD013DC58287DD009DCEB
:1012B00000287BD04528F6D04628F4D047281AD1FC
:1012C000A5E118E0632835D0642870D0652812D1D4
:1012D0009DE170286CD008DC6728F1D069287BD0AC
:1012E0006E280DD06F2806D1BAE073282ED075284D
:1012F00071D0782859D01A9A199990476D1C7EE1BF
:101300006002400F022809D003280DD00428189845
:1013100001680DD00D60001D189070E11898EA1753
:1013200001680D604A60F6E7189801680D80F2E7E1
:101330000D70F0E718986A4601781172001D189038
:101340000020507202A80090012005E0189802C801
:10135000189000200091C04361070DD5002101E0E5
:101360000199491C0191B94212DA8142F8DB009AD5
:10137000515C0029F4D10BE0002101E00199491CE6
:1013800001918142FADB019A0099895C0029F5D12B
:10139000019904981A9B471A21463846199A00F079
:1013A00097FA0199401945180BE04FE02CE113E042
:1013B0004EE0009800990078491C00911A9A1999FA
:1013C00090470198401E0190401CF2D121463846BA
:1013D0001A9B199A10E137E00A2000210090019130
:1013E0006002410F022907D0189A01CA1892C21749
:1013F0009446032908D00AE01898C01DC108C90006
:1014000005C91891944607E000B2C2179446042912
:1014100002D140B2C1178C4600226146944506DADB
:101420000A460021404291418C462D2102E02105CF
:1014300004D52B216A461173012103E0E10701D095
:101440002021F7E7029155E00A200AE0102008E089
:10145000102000900021042004430191082703E09C
:1014600008200021019100906002410F022907D05D
:10147000189A01CA189200229446032908D008E05D
:101480001898C01DC108C90005C91891944603E009
:1014900080B2042900D1C0B200210291210729D5D0
:1014A0001199702906D0009A1021019B4A401A43D5
:1014B00005D00EE040216A461173012108E0614623
:1014C000014306D030216A461173119951730221EC
:1014D0000291009A0821019B4A401A430AD16146B1
:1014E000014301D1610705D530216A4611730121FD
:1014F0007F1E02911199582904D035A10E910DA992
:101500000D910DE037A1F9E76146019B009AFEF7C6
:10151000EFFD0E9B8C469B5C0D9A521E0D92137034
:1015200061460143F0D10D9805A9081A20300190B9
:10153000600703D501200004844300E001270198DF
:10154000874201DD381A00E000200199009041181F
:10155000029809180498401A0490E00306D4214622
:101560001A9B199A049800F0B3F94519002706E070
:1015700003A81A9AC05D199990476D1C7F1C0298A8
:101580008742F5DBE0030CD521461A9B199A049893
:1015900000F09EF9451904E01A9A302019999047F5
:1015A0006D1C0099481E00900029F5DC08E00D989C
:1015B0000D990078491C0D911A9A199990476D1C44
:1015C0000199481E01900029F1DC63E1092801001E
:1015D00030313233343536373839616263646566A9
:1015E000000000003031323334353637383941426B
:1015F000434445460000000000F05AF94519761CA6
:101600003078002800D0E2E528461BB0F0BD600726
:1016100000D406271898C01DC108C90048680A6888
:101620000831C30FDB071891190001D09CA108E015
:10163000210501D59BA104E0E10701D09AA100E0BA
:101640009AA1430011985B08109165280CD006DC24
:10165000452809D046281DD0472841D141E06628B9
:1016600018D067283CD13CE00021112F01DB11206C
:1016700000E0781C0191009008A911A8FFF7E8FC90
:10168000139905910021119A15927F1C12980197C8
:10169000009150E00120C00703900120019008A9AB
:1016A000009711A8FFF7D4FC139A14990592002211
:1016B000119B009212981593059A0192002901D06E
:1016C000104602E0791C40180190381A01D50198A3
:1016D00004E04042401E0090781C0190C01B029024
:1016E00043E0012F00DA01270021112F01DD112035
:1016F00000E038460191009008A911A8FFF7A8FC66
:1017000013990591119A0021129815920091019751
:1017100021070CD40599B94201DB019900E0019140
:10172000012904DD159A491E515C302906D0B842C2
:1017300001DA011D05DA0121029115E00199491E26
:10174000EDE7002805DC0099411800910199091A7C
:1017500003E0019A411C914200DD01910099401A79
:10176000401C02900120C0070390200706D4029974
:101770000198814202DB0020C043029000206946AC
:10178000C87707AF012103980337C907884224D0DF
:10179000022011902B201290039800280CDA40426E
:1017A00003902D20129007E00A210398FEF7AEFE69
:1017B00030317F1E039039701199481E1190002915
:1017C000F2DC03980028EFD1791E12980870307867
:1017D000202108404530BF1E387006A8C01BC01D20
:1017E000039010980078002800D00120019941183A
:1017F0000298C0170918039809180498401A401E47
:101800000490E00306D421461A9B199A049800F02C
:101810005FF8451910980078002803D01A9A199992
:1018200090476D1CE00324D521461A9B199A049811
:1018300000F04EF845191CE00098002807DB0099DD
:101840000598884203DD1598405C199901E01999C3
:1018500030201A9A904700986D1C401C0090029806
:10186000401E0290002804D11A9A2E201999904700
:101870006D1C0199481E01900029DDDC05E03878D7
:101880001A9A7F1C199990476D1C0399481E039062
:101890000029F4DC21461A9B199A0498ACE6000052
:1018A0002D0000002B0000002000000000000000C0
:1018B000F8B5044600251E461746880404D405E002
:1018C00039462020B0476D1C641EF9D52846F8BD66
:1018D000FFB50446002581B01E46C80301D5302758
:1018E00000E02027880404D505E038460399B04776
:1018F0006D1C641EF9D5284605B0F0BD4A68002A63
:1019000006D00A68531C0B6010704868401E48607F
:1019100070475425643A5B5349465D2053746F7099
:10192000204F4B0D0A005425643A5B5349465D2015
:10193000427974653A3078253032580D0A005425C2
:10194000643A5B5349465D204269743A3120206C09
:101950006F773D25642020686967683D25640D0A1E
:10196000002E2E2F4C69627261726965732F50547C
:10197000333259303033785F46574C69622F737277
:10198000632F5054333259303033785F70776D2E77
:1019900063000000A419000000000020E80200001D
:0419A00042100000F1
:04000005000000DD1A
:00000001FF
