:020000040000FA
:10000000D8040020C1000000F3060000ED06000047
:1000100000000000000000000000000000000000E0
:100020000000000000000000000000000D080000BB
:100030000000000000000000090800000F08000098
:1000400000000000D300000000000000F1060000E6
:1000500000000000E5060000E7060000E9060000D9
:10006000EB0600000000000000000000000000009F
:1000700095060000B9080000000000002F090000EC
:100080002D0900000D090000000000000000000024
:10009000F50600000000000000000000EF06000070
:1000A000000000000B080000000000003109000003
:1000B00095090000000000000000000000000000A2
:1000C0000448804704480047FEE7FEE7FEE7FEE7F6
:1000D000FEE7FEE711080000DD000000034885464A
:1000E00000F0FCF900480047390A0000D80400205D
:1000F000F0B51FB40646002082B0054640240191A9
:1001000000901BE0019922460F46304600F02DFA80
:10011000049A059B801A994110D31046194622462D
:1001200000F013FA361A8F41019722460120002170
:10013000009F00F00AFA38184D4100902046641ED6
:100140000028DFDC019B00982946324607B0F0BD4D
:10015000F0B507460846584087B0C00F04904800E5
:100160000E46590040084908BC1A884105D2384655
:1001700031461E4617460B460246580040081043BB
:100180004CD0300D039040055900400D490D0590AD
:10019000401A0290402872DA18030121000B090569
:1001A0000843019004980092002805D0019952421A
:1001B0000020884100920190029840210A1A01997A
:1001C000009800F0C2F905460C466B4607CB00F0DC
:1001D000DDF9C0197141039A0E0D0023D71756405F
:1001E0001A467A40164344D0049A002A2DD0029A27
:1001F000012A039A15DC1205C01A91410126360521
:10020000001C7141D20F059ED20700930192029605
:100210002A46234600F0DAF907B0F0BD38463146E9
:10022000FAE71605224A0F46B218C01AB741012153
:100230000905001C4F4100187F41114618187941EB
:10024000E20F10436D19644113E0E2076D08154396
:100250006408C2071443039A01261205C01A91418B
:100260003605001C7141CE07400830434908C018CC
:1002700051412A46234600F09CF9CDE7FFE7049858
:1002800001224000C117121A00238B410498314605
:10029000C417381AA141EEE730B40124E4076340E3
:1002A00030BC55E730B40124E407614030BC4FE76F
:1002B0000000E0FFF0B51FB488B00B990998002446
:1002C00048400999C00F490049080991C0070B9996
:1002D0000090490049080B9109990898A6460843DF
:1002E0001CD00B990A98084318D0099801244000A3
:1002F000420D4800410D099824050003000B2043DE
:1003000009900B980003000B20430B9050181C49D8
:100310004018002201901446104605E000200146D6
:100320000DB0F0BD032801DA034600E003239C462C
:10033000C11A0AAE0AE05F0008ADED5B4F00F75B43
:100340007D430027AA187C41491C5B1E6145F2DDF4
:10035000410004AB5A522104120C0A43240C401CE5
:100360000828DFDB01980290009970460191009007
:10037000059B049A0799069800F028F9D0E7000039
:100380000DFCFFFFF0B50C465C4085B0E40FE407C0
:1003900003944C000026640859009446490802461C
:1003A0000296224321D062460A431ED06200570DB6
:1003B0004A000E032303550D012402462C4924054F
:1003C000781B1B0B360B40182343264361460090D5
:1003D0001C46501AB44103D30098401C009002E020
:1003E000921800985B41002803DA0020014605B00E
:1003F000F0BD0020012109050746864611E064464C
:100400001D46141BB54106D36546521BB3417446C5
:1004100007430C43A646CD074008490828439218D5
:100420005B4105460D43EAD11046184313D06046A0
:10043000194650407140084306D06046101AB34137
:1004400006D20122002306E000220123DB0702E09E
:100450000122D2435310009874460105381C6141B3
:10046000029C039D0019694100F0A3F8BFE700005A
:10047000FD0300004A0009030123090B1B05194372
:100480000A4B10B5520D9A4202DA0020014610BD07
:10049000064B34339A4203DC9A1A00F066F810BD1A
:1004A000034BD21800F051F810BD0000FF0300000C
:1004B000CDFBFFFF10B5002904DB0124E407404217
:1004C0008C412146002B04DB1C460123DB075242F2
:1004D000A341994200D1904210BD00001CB50948CB
:1004E00000900948019005460126009C05E0E3685C
:1004F00007CC33430C3C98471034AC42F7D3FFF79A
:10050000F1FD0000681800007818000070B504467E
:10051000002903D000202022012310E0002801D070
:100520000020C043C046C0460DE02546D5408D4260
:1005300005D30D469540641B1D4695404019154650
:10054000521E002DF1DC214670BD10B5202A04DBBF
:100550000146203A9140002010BD914020239C1A72
:100560000346E3401943904010BD10B5202A04DB38
:100570000846203AD040002110BD0B46D340D04061
:100580002024A21A91400843194610BD10B5202A14
:1005900006DBCB170846203A1041C1170B4306E093
:1005A0000B461341D0402024A21A9140084319461B
:1005B00010BD10B5002B08DA0024401C61419218D0
:1005C0005B411A4301D14008400010BDF0B51FB493
:1005D00082B005460C0003D0084600F0A5FC02E0FE
:1005E00000F0A2FC20300246009021462846FFF78A
:1005F000ACFF049B059A04460F4618431143084379
:1006000014D0184610431BD0009840210A1A1846EF
:100610000599FFF7AAFF05460E46009A059904982A
:10062000FFF793FF084305D0012004E02046394638
:1006300007B0F0BD0020C11705430E432C433743DC
:1006400000990E986305401A7905E40A00220C43CC
:10065000FD0A0A3002D500200146E9E7010510191C
:1006600069410C9C0D9D00196941FFF7A2FFDFE76E
:10067000D2B201E00270401C491EFBD2704700223A
:10068000F6E710B513460A4604461946FFF7F0FF91
:10069000204610BD10B51148816849071CD5016C72
:1006A0000F490C680122D20603681340641C03D072
:1006B000002B04D0036801E0002B00D10368436CD9
:1006C0000B68016811405A1C03D0002904D001684E
:1006D00001E0002900D1006810BDC046002401409F
:1006E0002CF001407047704770477047FEE7704735
:1006F0007047704770470000F0B587B00778042F47
:100700004DD24268082A4ED201210B048668344635
:100710001C439C424FD10C05C3681D462543A5428E
:100720004DD10C07056906952543A5424BD10C0612
:10073000456905952543A54249D1C169022936D2AB
:10074000029203910496056A02242C43022C42D1A2
:100750003E46BF00234C39192839226800922246B0
:10076000A4680194008B08600299B940049803437F
:100770000698034305980343B3400B431AA0C0599E
:10078000009908401843106003980543BD401AA023
:10079000C059019908402843906007B0F0BD104847
:1007A000792100F02BF90E487A2100F027F90C4846
:1007B0007F2100F023F90A487B2100F01FF9084847
:1007C0007C2100F01BF906487D2100F017F9044850
:1007D0007E2100F013F90248802100F00FF9C04695
:1007E00036180000502C0140F8FFEEEE8FFFDDDDE3
:1007F000FFF8BBBBFF8F7777FCFFFFFFCFFFFFFF4B
:10080000FFFCFFFFFFCFFFFF704770477047704747
:10081000B0B52648016B0F230B4082698469456897
:1008200041680F2B01D0002B17D16B06DB0F06257B
:10083000A543FF24240222400524240254406219C7
:10084000D21805D0002B01D040224260184A8260A5
:10085000090502D50121C90241600121CA43154B96
:100860001C6814401C609C680C439C601C6914400C
:100870001C61026803239A430260026802601F221F
:10088000130104689C430460036803601206036854
:1008900093430360026802600268920700D0FEE79B
:1008A000090502680A430260B0BDC0460CF0014071
:1008B00056AB000008180040B0B510490868800623
:1008C00005D40A680020520604D5402201E0012028
:1008D00020220A600B6C0A490A78541C7F222240AD
:1008E000084C2478A24208D00C78A400064D2B5363
:1008F0000B789B00EB1898700A70B0BD002C01407B
:10090000800200208102002080000020064801684B
:10091000C90707D0016801220A430260364801680E
:10092000491C01607047C046001000407047704786
:1009300070B5304C2068C00704D115480168491CC7
:10094000016070BD2C4805680E4E3068281A0628D4
:1009500006D30D48002101800C484121FFF78FFE8E
:1009600035600948094902E02268D207E9D02246E9
:10097000103A126803883F2BF6D803885D1C058067
:10098000CA54F1E784020020CE0200208C0200202D
:10099000880200207047000083B0B0B581B00546E2
:1009A00005A80EC005AB0093114C802120462A46B5
:1009B00000F0A2FA012816DB81B20E4800290AD005
:1009C000002203685B05FCD4A35C0546103D2B6048
:1009D000521C8A42F5D10168C905FCD50648016858
:1009E00002688A42FCD001B0B0BC01BC03B0004731
:1009F0000000002010440040D00200200A460146BA
:100A000001A0FFF7C9FFFEE757726F6E67207061A4
:100A100072616D65746572732076616C75653A20DC
:100A200066696C65202573206F6E206C696E652089
:100A3000256C750D0A00000094B01D480146083968
:100A400001260E604664816831438160016802229C
:100A500004921143016017490020086016490722DB
:100A60000A920A6015490A68082308939A430A60A3
:100A70000A680A6064224A600A460C3AF74B13601F
:100A80000A6832430A60F64B5A68F64C2240F40377
:100A9000099412195A607204F34B1A6010390A68EB
:100AA00032430A60F1498B68202213438B600BE0CC
:100AB00010100048041400480018004014100040B2
:100AC000001D5208182807D0D307F9D033468340B9
:100AD0000C681C430C60F3E78A68402002438A607C
:100AE000002203E0121D40081C2A07D0C307F9D0DA
:100AF000334693400C681C430C60F3E7FF23180651
:100B0000D74AD1688143F0070818D060F006D6496B
:100B10000860D74DA8683043A8600024E043E8612E
:100B20000590A861286876218843069319460A3102
:100B3000079108432860CF4F3868C005C00E411C9C
:100B4000CD48FFF7E3FC3968C900C90E491CFFF71F
:100B5000DDFC0746400BE12830460DD30396E12625
:100B600071033846FFF7D2FCC4494143C919320327
:100B7000914200D9401C039E68602968802001438F
:100B80002960BF4ABF491160BF4D29460839099BFA
:100B90000B606E602968049B194329602968314302
:100BA0002960059D1560B9490A681A430A600A68F8
:100BB000042303931A430A60B5490A68B54B1340EE
:100BC000B54A9A180A60069A12044B6813434B60A0
:100BD00072060B6813430B600A9A12064B681343A4
:100BE0004B604A689F4B1A4037467F267302134377
:100BF0004B604A693A431E239A434A611F225201BD
:100C00004B6993434B61A54AD21D8B6913403A044B
:100C100006929A188A61BA030B6813430B60904BD3
:100C20001A6802430A96B2431A6038038E4A10606B
:100C30000A68099B1A430A600A683A430A608A688C
:100C4000D207FCD00A6802430A60954FB968202099
:100C50000143B96003E0241D4008182C07D0C107E8
:100C6000F9D00321A1403A680A433A60F3E7F86CEF
:100C700020210143F964B96810200143B9600021C3
:100C800003E0091D4008142907D0C207F9D0032248
:100C90008A403B6813433B60F3E7F86C1021014343
:100CA000F964804A804810621068804901401160F0
:100CB0000BAB0120187000241C8302930799D631D6
:100CC000116110940C90099000070F9004981390F4
:100CD00012940E940D941846FFF70EFD0326029809
:100CE0000670FFF709FD391F40200860F86378633C
:100CF000B9680143B96003E0241D40081C2C07D0EB
:100D0000C107F9D03146A1403A680A433A60F3E797
:100D1000F86C40210143F964624B586B5F4908400D
:100D200006990818C01D5863D86908990843D86106
:100D30004B4908684B4A10400860099A50034A49D9
:100D400008601868104318605948016859A0FFF7F7
:100D500023FE4B20800007905A4B5B4F07E0594B16
:100D60004749484808600120474A50600D6072B604
:100D7000534800781A7862B69042F1D000240B9460
:100D80002346089403E002294BD0904248D0C1B2D8
:100D900089007E5A401C0A9D284079188D78E1B25E
:100DA000002905D00129EED1002D0CD0099CECE7DB
:100DB0000024012DE9D146498E42E6D300230B934E
:100DC000099C0893E1E74149711889B2642905D863
:100DD0000899C9B20429099CD7D13BE0079932315F
:100DE00001258E422C4603D8002407998E42CCD28E
:100DF00006950899C9B20BAE755C6D002C19745438
:100E00005B1CD9B2082901D0069CBEE70899491C91
:100E10000891C9B20329049C00D801240023B4E737
:100E20001046E1B20229059D99D10899C9B2042959
:100E300095D172B62249087062B60BA84378027841
:100E40001B4909688478C0780094019021A0FFF7BD
:100E5000A3FD84E7022403990891E2E7BF12000092
:100E60000CE400E0FF00FFFF00E100E0103000486C
:100E7000044400400CF00140006CDC0200E0E3FFA1
:100E80000034004051E5CC1A0830004058000048BA
:100E90000024014081F4C0FF32080100F8FFF8FF90
:100EA00010200048042C014010270000FBF9FFFF30
:100EB000D00200205425643A494E49540D0A0000DE
:100EC0008102002080020020800000203EFEFFFF03
:100ED000701700005425643A5B5349465D203A2060
:100EE00025303258202530325820253032582025E0
:100EF0003032580D0A0000007CB51D4616460C0025
:100F000001D0611E00E0002101910090054B6A466E
:100F10002946304600F0E8F8002C02D0009A002163
:100F200011707CBD211800002021020C01D010217D
:100F30001046020A01D010460839020901D01046B5
:100F4000091F820801D01046891E420801D0881E60
:100F50007047081A704702E008C8121F08C1002A2B
:100F6000FAD170477047002001E001C1121F002A2A
:100F7000FBD17047F0B51FB486B00998089A030DED
:100F80000021024314D05148514A18185043051407
:100F90001198012810981AD0281A401C00264D4F8D
:100FA0004D49009601910490002812DA444211E064
:100FB0001198012449A3012801D11098C143069832
:100FC000119A84600360C26041600BB0F0BD404282
:100FD000E4E70446210500203F4A001C51410391EB
:100FE000029012E0E00707D032463B460199009894
:100FF000FFF760F90191009032463B4610461946D2
:10100000FFF758F906460F466410002CEAD1049801
:10101000039B0028029A0999089806DAFFF74AF913
:10102000019B009AFFF746F905E0FFF7ABF9019B3A
:10103000009AFFF7A7F904460E460022284BFFF757
:1010400039FA03D80020C043014607E00022254BAF
:1010500020463146FFF77CF8FFF70CFA102409E030
:10106000002C0ADB0A220023FFF742F8079B3032EC
:101070001A55641E02460A43F2D11122641C079BD2
:10108000121B1C19119B012B03D0012308430ED105
:101090000AE0084304D0112010900020119077E757
:1010A0001098151A6D1E0BE01098824202DD002385
:1010B0006D1C03E0824201DA00236D1E002BEED08E
:1010C000069811998260C16030C07EE701FCFFFF85
:1010D000104D0000000014400000F03F3000000000
:1010E0000000F0430000E03FFFB597B00646002542
:1010F00018E2252877D100242746FD49049400E012
:101100000443761C32780120203A90400842F7D1FF
:1011100030782A280ED00222307801463039092949
:1011200016D804990A235943303940181443761CC1
:101130000490F1E7189802C804911890002904DA85
:101140000120400304434842049002200443761CDB
:1011500030782E2814D1042004437078761C2A2875
:1011600009D11898761C80C8189009E00A214F43CD
:10117000303FC719761C3078014630390929F5D936
:1011800030786C2810D006DC4C281AD068280ED095
:101190006A2817D104E0742813D07A2812D110E0FD
:1011A0000120400504430CE00121090501E0032171
:1011B00009050C437178814203D1012000052418F0
:1011C000761C761C3078119066280BD013DC5828DA
:1011D0007DD009DC00287BD04528F6D04628F4D005
:1011E00047281AD1A5E118E0632835D0642870D0CB
:1011F000652812D19DE170286CD008DC6728F1D0F9
:1012000069287BD06E280DD06F2806D1BAE07328EC
:101210002ED0752871D0782859D01A9A19999047EC
:101220006D1C7EE16002400F022809D003280DD01A
:101230000428189801680DD00D60001D189070E109
:101240001898EA1701680D604A60F6E71898016877
:101250000D80F2E70D70F0E718986A460178117278
:10126000001D18900020507202A80090012005E097
:10127000189802C8189000200091C04361070DD54E
:10128000002101E00199491C0191B94212DA814221
:10129000F8DB009A515C0029F4D10BE0002101E059
:1012A0000199491C01918142FADB019A0099895CFC
:1012B0000029F5D1019904981A9B471A214638460E
:1012C000199A00F097FA0199401945180BE04FE080
:1012D0002CE113E04EE0009800990078491C009141
:1012E0001A9A199990470198401E0190401CF2D11A
:1012F000214638461A9B199A10E137E00A2000214E
:10130000009001916002410F022907D0189A01CA8A
:101310001892C2179446032908D00AE01898C01DF5
:10132000C108C90005C91891944607E000B2C21768
:101330009446042902D140B2C1178C46002261466E
:10134000944506DA0A460021404291418C462D21FF
:1013500002E0210504D52B216A461173012103E027
:10136000E10701D02021F7E7029155E00A200AE0C9
:10137000102008E010200090002104200443019177
:10138000082703E008200021019100906002410F2E
:10139000022907D0189A01CA1892002294460329FC
:1013A00008D008E01898C01DC108C90005C91891E7
:1013B000944603E080B2042900D1C0B2002102911A
:1013C000210729D51199702906D0009A1021019B77
:1013D0004A401A4305D00EE040216A4611730121AC
:1013E00008E06146014306D030216A461173119925
:1013F000517302210291009A0821019B4A401A432D
:101400000AD16146014301D1610705D530216A4601
:10141000117301217F1E02911199582904D035A121
:101420000E910DA90D910DE037A1F9E76146019BE1
:10143000009AFEF75DFE0E9B8C469B5C0D9A521E39
:101440000D92137061460143F0D10D9805A9081A59
:1014500020300190600703D501200004844300E0A0
:1014600001270198874201DD381A00E00020019928
:1014700000904118029809180498401A0490E0035B
:1014800006D421461A9B199A049800F0B3F945191D
:10149000002706E003A81A9AC05D199990476D1CB1
:1014A0007F1C02988742F5DBE0030CD521461A9B8E
:1014B000199A049800F09EF9451904E01A9A302010
:1014C000199990476D1C0099481E00900029F5DC81
:1014D00008E00D980D990078491C0D911A9A1999F8
:1014E00090476D1C0199481E01900029F1DC63E1D1
:1014F00009280100303132333435363738396162EA
:1015000063646566000000003031323334353637AD
:1015100038394142434445460000000000F05AF982
:101520004519761C3078002800D0E2E528461BB02B
:10153000F0BD600700D406271898C01DC108C90077
:1015400048680A680831C30FDB071891190001D0F9
:101550009CA108E0210501D59BA104E0E10701D091
:101560009AA100E09AA1430011985B0810916528A8
:101570000CD006DC452809D046281DD0472841D18B
:1015800041E0662818D067283CD13CE00021112FAB
:1015900001DB112000E0781C0191009008A911A83E
:1015A000FFF7E8FC139905910021119A15927F1C11
:1015B00012980197009150E00120C007039001208C
:1015C000019008A9009711A8FFF7D4FC139A149969
:1015D00005920022119B009212981593059A019290
:1015E000002901D0104602E0791C40180190381AF9
:1015F00001D5019804E04042401E0090781C019003
:10160000C01B029043E0012F00DA01270021112FB7
:1016100001DD112000E038460191009008A911A8D1
:10162000FFF7A8FC13990591119A002112981592C1
:101630000091019721070CD40599B94201DB01996A
:1016400000E00191012904DD159A491E515C302901
:1016500006D0B84201DA011D05DA0121029115E038
:101660000199491EEDE7002805DC00994118009119
:101670000199091A03E0019A411C914200DD019190
:101680000099401A401C02900120C00703902007D7
:1016900006D402990198814202DB0020C0430290E7
:1016A00000206946C87707AF012103980337C907AF
:1016B000884224D0022011902B20129003980028F9
:1016C0000CDA404203902D20129007E00A21039883
:1016D000FEF71CFF30317F1E039039701199481EB0
:1016E00011900029F2DC03980028EFD1791E12989E
:1016F00008703078202108404530BF1E387006A899
:10170000C01BC01D039010980078002800D0012055
:10171000019941180298C0170918039809180498EC
:10172000401A401E0490E00306D421461A9B199AE1
:10173000049800F05FF8451910980078002803D04D
:101740001A9A199990476D1CE00324D521461A9BDB
:10175000199A049800F04EF845191CE000980028EA
:1017600007DB00990598884203DD1598405C1999BC
:1017700001E0199930201A9A904700986D1C401C7E
:1017800000900298401E0290002804D11A9A2E2040
:10179000199990476D1C0199481E01900029DDDCC4
:1017A00005E038781A9A7F1C199990476D1C0399A7
:1017B000481E03900029F4DC21461A9B199A0498CC
:1017C000ACE600002D0000002B000000200000000F
:1017D00000000000F8B5044600251E4617468804A0
:1017E00004D405E039462020B0476D1C641EF9D5AD
:1017F0002846F8BDFFB50446002581B01E46C80343
:1018000001D5302700E02027880404D505E03846BC
:101810000399B0476D1C641EF9D5284605B0F0BD8C
:101820004A68002A06D00A68531C0B60107048688A
:10183000401E486070472E2E2F4C6962726172699B
:1018400065732F5054333259303033785F46574CDC
:1018500069622F7372632F505433325930303378AA
:101860005F70776D2E630000781800000000002084
:08187000D8040000660F00001F
:04000005000000DD1A
:00000001FF
